{
  "contractName": "Marketplace",
  "abi": [
    {
      "constant": true,
      "inputs": [],
      "name": "name",
      "outputs": [
        {
          "name": "",
          "type": "string"
        }
      ],
      "payable": false,
      "stateMutability": "view",
      "type": "function"
    },
    {
      "constant": true,
      "inputs": [],
      "name": "totalEtherSold",
      "outputs": [
        {
          "name": "",
          "type": "uint256"
        }
      ],
      "payable": false,
      "stateMutability": "view",
      "type": "function"
    },
    {
      "constant": true,
      "inputs": [
        {
          "name": "",
          "type": "uint256"
        }
      ],
      "name": "products",
      "outputs": [
        {
          "name": "id",
          "type": "uint256"
        },
        {
          "name": "name",
          "type": "string"
        },
        {
          "name": "price",
          "type": "uint256"
        },
        {
          "name": "owner",
          "type": "address"
        },
        {
          "name": "purchased",
          "type": "bool"
        },
        {
          "name": "itemHash",
          "type": "bytes32"
        }
      ],
      "payable": false,
      "stateMutability": "view",
      "type": "function"
    },
    {
      "constant": true,
      "inputs": [],
      "name": "productCount",
      "outputs": [
        {
          "name": "",
          "type": "uint256"
        }
      ],
      "payable": false,
      "stateMutability": "view",
      "type": "function"
    },
    {
      "inputs": [],
      "payable": false,
      "stateMutability": "nonpayable",
      "type": "constructor"
    },
    {
      "anonymous": false,
      "inputs": [
        {
          "indexed": false,
          "name": "id",
          "type": "uint256"
        },
        {
          "indexed": false,
          "name": "name",
          "type": "string"
        },
        {
          "indexed": false,
          "name": "price",
          "type": "uint256"
        },
        {
          "indexed": false,
          "name": "owner",
          "type": "address"
        },
        {
          "indexed": false,
          "name": "purchased",
          "type": "bool"
        },
        {
          "indexed": false,
          "name": "itemHash",
          "type": "bytes32"
        }
      ],
      "name": "ProductCreated",
      "type": "event"
    },
    {
      "anonymous": false,
      "inputs": [
        {
          "indexed": false,
          "name": "id",
          "type": "uint256"
        },
        {
          "indexed": false,
          "name": "name",
          "type": "string"
        },
        {
          "indexed": false,
          "name": "price",
          "type": "uint256"
        },
        {
          "indexed": false,
          "name": "owner",
          "type": "address"
        },
        {
          "indexed": false,
          "name": "purchased",
          "type": "bool"
        },
        {
          "indexed": false,
          "name": "itemHash",
          "type": "bytes32"
        }
      ],
      "name": "ProductPurchased",
      "type": "event"
    },
    {
      "constant": false,
      "inputs": [
        {
          "name": "_name",
          "type": "string"
        },
        {
          "name": "_price",
          "type": "uint256"
        }
      ],
      "name": "createProduct",
      "outputs": [],
      "payable": false,
      "stateMutability": "nonpayable",
      "type": "function"
    },
    {
      "constant": false,
      "inputs": [
        {
          "name": "_id",
          "type": "uint256"
        }
      ],
      "name": "purchaseProduct",
      "outputs": [],
      "payable": true,
      "stateMutability": "payable",
      "type": "function"
    },
    {
      "constant": true,
      "inputs": [
        {
          "name": "_id",
          "type": "uint256"
        }
      ],
      "name": "getItemHash",
      "outputs": [
        {
          "name": "",
          "type": "bytes32"
        }
      ],
      "payable": false,
      "stateMutability": "view",
      "type": "function"
    },
    {
      "constant": true,
      "inputs": [],
      "name": "getTotalEtherInProducts",
      "outputs": [
        {
          "name": "",
          "type": "uint256"
        }
      ],
      "payable": false,
      "stateMutability": "view",
      "type": "function"
    },
    {
      "constant": true,
      "inputs": [
        {
          "name": "_owner",
          "type": "address"
        }
      ],
      "name": "getProductCountByOwner",
      "outputs": [
        {
          "name": "",
          "type": "uint256"
        }
      ],
      "payable": false,
      "stateMutability": "view",
      "type": "function"
    },
    {
      "constant": true,
      "inputs": [
        {
          "name": "_owner",
          "type": "address"
        },
        {
          "name": "_index",
          "type": "uint256"
        }
      ],
      "name": "getProductByOwner",
      "outputs": [
        {
          "name": "id",
          "type": "uint256"
        },
        {
          "name": "productName",
          "type": "string"
        },
        {
          "name": "price",
          "type": "uint256"
        },
        {
          "name": "owner",
          "type": "address"
        },
        {
          "name": "purchased",
          "type": "bool"
        },
        {
          "name": "itemHash",
          "type": "bytes32"
        }
      ],
      "payable": false,
      "stateMutability": "view",
      "type": "function"
    }
  ],
  "bytecode": "0x6080604052600060015560006002553480156200001b57600080fd5b506040805190810160405280601b81526020017f4461707020556e6976657273697479204d61726b6574706c6163650000000000815250600090805190602001906200006992919062000070565b506200011f565b828054600181600116156101000203166002900490600052602060002090601f016020900481019282601f10620000b357805160ff1916838001178555620000e4565b82800160010185558215620000e4579182015b82811115620000e3578251825591602001919060010190620000c6565b5b509050620000f39190620000f7565b5090565b6200011c91905b8082111562000118576000816000905550600101620000fe565b5090565b90565b61135d806200012f6000396000f3fe6080604052600436106100a4576000357c0100000000000000000000000000000000000000000000000000000000900463ffffffff16806306fdde03146100a95780630857f0a11461013957806319a6b04a146101645780631bed4e381461018f57806338e76a03146101f457806340faa28a146102225780637acc0b20146103495780639caa944814610450578063e0f6ef871461049f578063e9300c6c146104ca575b600080fd5b3480156100b557600080fd5b506100be61059c565b6040518080602001828103825283818151815260200191508051906020019080838360005b838110156100fe5780820151818401526020810190506100e3565b50505050905090810190601f16801561012b5780820380516001836020036101000a031916815260200191505b509250505060405180910390f35b34801561014557600080fd5b5061014e61063a565b6040518082815260200191505060405180910390f35b34801561017057600080fd5b50610179610683565b6040518082815260200191505060405180910390f35b34801561019b57600080fd5b506101de600480360360208110156101b257600080fd5b81019080803573ffffffffffffffffffffffffffffffffffffffff169060200190929190505050610689565b6040518082815260200191505060405180910390f35b6102206004803603602081101561020a57600080fd5b810190808035906020019092919050505061072c565b005b34801561022e57600080fd5b5061027b6004803603604081101561024557600080fd5b81019080803573ffffffffffffffffffffffffffffffffffffffff16906020019092919080359060200190929190505050610b03565b60405180878152602001806020018681526020018573ffffffffffffffffffffffffffffffffffffffff1673ffffffffffffffffffffffffffffffffffffffff16815260200184151515158152602001838152602001828103825287818151815260200191508051906020019080838360005b838110156103095780820151818401526020810190506102ee565b50505050905090810190601f1680156103365780820380516001836020036101000a031916815260200191505b5097505050505050505060405180910390f35b34801561035557600080fd5b506103826004803603602081101561036c57600080fd5b8101908080359060200190929190505050610d7d565b60405180878152602001806020018681526020018573ffffffffffffffffffffffffffffffffffffffff1673ffffffffffffffffffffffffffffffffffffffff16815260200184151515158152602001838152602001828103825287818151815260200191508051906020019080838360005b838110156104105780820151818401526020810190506103f5565b50505050905090810190601f16801561043d5780820380516001836020036101000a031916815260200191505b5097505050505050505060405180910390f35b34801561045c57600080fd5b506104896004803603602081101561047357600080fd5b8101908080359060200190929190505050610e7e565b6040518082815260200191505060405180910390f35b3480156104ab57600080fd5b506104b4610eba565b6040518082815260200191505060405180910390f35b3480156104d657600080fd5b5061059a600480360360408110156104ed57600080fd5b810190808035906020019064010000000081111561050a57600080fd5b82018360208201111561051c57600080fd5b8035906020019184600183028401116401000000008311171561053e57600080fd5b91908080601f016020809104026020016040519081016040528093929190818152602001838380828437600081840152601f19601f82011690508083019250505050505050919291929080359060200190929190505050610ec0565b005b60008054600181600116156101000203166002900480601f0160208091040260200160405190810160405280929190818152602001828054600181600116156101000203166002900480156106325780601f1061060757610100808354040283529160200191610632565b820191906000526020600020905b81548152906001019060200180831161061557829003601f168201915b505050505081565b600080600090506000600190505b6001548111151561067b576003600082815260200190815260200160002060020154820191508080600101915050610648565b508091505090565b60025481565b600080600090506000600190505b60015481111515610722578373ffffffffffffffffffffffffffffffffffffffff166003600083815260200190815260200160002060030160009054906101000a900473ffffffffffffffffffffffffffffffffffffffff1673ffffffffffffffffffffffffffffffffffffffff1614156107155781806001019250505b8080600101915050610697565b5080915050919050565b600060036000838152602001908152602001600020905060008160030160009054906101000a900473ffffffffffffffffffffffffffffffffffffffff169050600082600001541180156107865750600154826000015411155b151561079157600080fd5b816002015434101515156107a457600080fd5b8160030160149054906101000a900460ff161515156107c257600080fd5b3373ffffffffffffffffffffffffffffffffffffffff168173ffffffffffffffffffffffffffffffffffffffff16141515156107fd57600080fd5b338260030160006101000a81548173ffffffffffffffffffffffffffffffffffffffff021916908373ffffffffffffffffffffffffffffffffffffffff16021790555060018260030160146101000a81548160ff021916908315150217905550816003600085815260200190815260200160002060008201548160000155600182018160010190805460018160011615610100020316600290046108a29291906111b3565b50600282015481600201556003820160009054906101000a900473ffffffffffffffffffffffffffffffffffffffff168160030160006101000a81548173ffffffffffffffffffffffffffffffffffffffff021916908373ffffffffffffffffffffffffffffffffffffffff1602179055506003820160149054906101000a900460ff168160030160146101000a81548160ff021916908315150217905550600482015481600401559050508073ffffffffffffffffffffffffffffffffffffffff166108fc349081150290604051600060405180830381858888f19350505050158015610994573d6000803e3d6000fd5b5081600201546002600082825401925050819055507f0865eac96d89f973f262e212b78a677a532dff8625aafd13816c53ff1e4af75682600001548360010184600201548560030160009054906101000a900473ffffffffffffffffffffffffffffffffffffffff168660030160149054906101000a900460ff16876004015460405180878152602001806020018681526020018573ffffffffffffffffffffffffffffffffffffffff1673ffffffffffffffffffffffffffffffffffffffff16815260200184151515158152602001838152602001828103825287818154600181600116156101000203166002900481526020019150805460018160011615610100020316600290048015610aeb5780601f10610ac057610100808354040283529160200191610aeb565b820191906000526020600020905b815481529060010190602001808311610ace57829003601f168201915b505097505050505050505060405180910390a1505050565b6000606060008060008060008090506000600190505b60015481111515610d3e578973ffffffffffffffffffffffffffffffffffffffff166003600083815260200190815260200160002060030160009054906101000a900473ffffffffffffffffffffffffffffffffffffffff1673ffffffffffffffffffffffffffffffffffffffff161415610d3157818060010192505060018901821415610d3057610ba961123a565b6003600083815260200190815260200160002060c0604051908101604052908160008201548152602001600182018054600181600116156101000203166002900480601f016020809104026020016040519081016040528092919081815260200182805460018160011615610100020316600290048015610c6b5780601f10610c4057610100808354040283529160200191610c6b565b820191906000526020600020905b815481529060010190602001808311610c4e57829003601f168201915b50505050508152602001600282015481526020016003820160009054906101000a900473ffffffffffffffffffffffffffffffffffffffff1673ffffffffffffffffffffffffffffffffffffffff1673ffffffffffffffffffffffffffffffffffffffff1681526020016003820160149054906101000a900460ff161515151581526020016004820154815250509050806000015181602001518260400151836060015184608001518560a00151849450985098509850985098509850505050610d73565b5b8080600101915050610b19565b506000806000806000600102849450602060405190810160405280600081525093929190839350965096509650965096509650505b9295509295509295565b6003602052806000526040600020600091509050806000015490806001018054600181600116156101000203166002900480601f016020809104026020016040519081016040528092919081815260200182805460018160011615610100020316600290048015610e2f5780601f10610e0457610100808354040283529160200191610e2f565b820191906000526020600020905b815481529060010190602001808311610e1257829003601f168201915b5050505050908060020154908060030160009054906101000a900473ffffffffffffffffffffffffffffffffffffffff16908060030160149054906101000a900460ff16908060040154905086565b60008082118015610e9157506001548211155b1515610e9c57600080fd5b60036000838152602001908152602001600020600401549050919050565b60015481565b60008251111515610ed057600080fd5b600081111515610edf57600080fd5b60016000815480929190600101919050555060008282336040516020018084805190602001908083835b602083101515610f2e5780518252602082019150602081019050602083039250610f09565b6001836020036101000a0380198251168184511680821785525050505050509050018381526020018273ffffffffffffffffffffffffffffffffffffffff1673ffffffffffffffffffffffffffffffffffffffff166c01000000000000000000000000028152601401935050505060405160208183030381529060405280519060200120905060c06040519081016040528060015481526020018481526020018381526020013373ffffffffffffffffffffffffffffffffffffffff1681526020016000151581526020018281525060036000600154815260200190815260200160002060008201518160000155602082015181600101908051906020019061103892919061128c565b506040820151816002015560608201518160030160006101000a81548173ffffffffffffffffffffffffffffffffffffffff021916908373ffffffffffffffffffffffffffffffffffffffff16021790555060808201518160030160146101000a81548160ff02191690831515021790555060a082015181600401559050507fece931d11502aff838cfcac8398e4eccaffb2c0c18a6c8de4656b1d3d364daee60015484843360008660405180878152602001806020018681526020018573ffffffffffffffffffffffffffffffffffffffff1673ffffffffffffffffffffffffffffffffffffffff16815260200184151515158152602001838152602001828103825287818151815260200191508051906020019080838360005b8381101561116f578082015181840152602081019050611154565b50505050905090810190601f16801561119c5780820380516001836020036101000a031916815260200191505b5097505050505050505060405180910390a1505050565b828054600181600116156101000203166002900490600052602060002090601f016020900481019282601f106111ec5780548555611229565b8280016001018555821561122957600052602060002091601f016020900482015b8281111561122857825482559160010191906001019061120d565b5b509050611236919061130c565b5090565b60c060405190810160405280600081526020016060815260200160008152602001600073ffffffffffffffffffffffffffffffffffffffff168152602001600015158152602001600080191681525090565b828054600181600116156101000203166002900490600052602060002090601f016020900481019282601f106112cd57805160ff19168380011785556112fb565b828001600101855582156112fb579182015b828111156112fa5782518255916020019190600101906112df565b5b509050611308919061130c565b5090565b61132e91905b8082111561132a576000816000905550600101611312565b5090565b9056fea165627a7a72305820a530b350ddb91bd54dd47a43633b18f9acb3d306d8a96af78d8125d03f82c4240029",
  "source": "pragma solidity ^0.5.0;\n\ncontract Marketplace {\n    string public name;\n    uint public productCount = 0;\n    uint public totalEtherSold = 0;\n    mapping(uint => Product) public products;\n\n    struct Product {\n        uint id;\n        string name;\n        uint price;\n        address payable owner;\n        bool purchased;\n        bytes32 itemHash;\n    }\n\n    event ProductCreated(\n        uint id,\n        string name,\n        uint price,\n        address payable owner,\n        bool purchased,\n        bytes32 itemHash\n    );\n\n    event ProductPurchased(\n        uint id,\n        string name,\n        uint price,\n        address payable owner,\n        bool purchased,\n        bytes32 itemHash// Thêm trường itemHash vào sự kiện ProductPurchased\n    );\n\n    constructor() public {\n        name = \"Dapp University Marketplace\";\n    }\n\n    function createProduct(string memory _name, uint _price) public {\n        require(bytes(_name).length > 0);\n        require(_price > 0);\n        productCount++;\n\n        // Create the itemHash by hashing the product information\n        bytes32 itemHash = keccak256(abi.encodePacked(_name, _price, msg.sender));\n\n        products[productCount] = Product(\n            productCount,\n            _name,\n            _price,\n            msg.sender,\n            false,\n            itemHash // Gán itemHash vào sản phẩm\n        );\n\n        emit ProductCreated(productCount, _name, _price, msg.sender, false, itemHash);\n    }\n\n    function purchaseProduct(uint _id) public payable {\n        // Lấy thông tin sản phẩm từ lưu trữ\n        Product storage _product = products[_id];\n        // Lấy địa chỉ của người bán\n        address payable _seller = _product.owner;\n        // Kiểm tra xem sản phẩm có id hợp lệ hay không\n        require(_product.id > 0 && _product.id <= productCount);\n        // Yêu cầu số Ether trong giao dịch phải đủ để mua sản phẩm\n        require(msg.value >= _product.price);\n        // Yêu cầu sản phẩm chưa được mua trước đó\n        require(!_product.purchased);\n        // Yêu cầu người mua không phải là người bán\n        require(_seller != msg.sender);\n        \n\n        // Chuyển quyền sở hữu sản phẩm cho người mua\n        _product.owner = msg.sender;\n        // Đánh dấu sản phẩm đã được mua\n        _product.purchased = true;\n        // Cập nhật thông tin sản phẩm trong mapping\n        products[_id] = _product;\n        // Trả tiền cho người bán bằng cách chuyển Ether\n        address(_seller).transfer(msg.value);\n        totalEtherSold += _product.price;\n        // Gửi sự kiện thông báo việc mua sản phẩm thành công\n        emit ProductPurchased(\n            _product.id,\n            _product.name,\n            _product.price,\n            _product.owner,\n            _product.purchased,\n            _product.itemHash\n        );\n    }\nfunction getItemHash(uint _id) public view returns (bytes32) {\n        require(_id > 0 && _id <= productCount);\n        return products[_id].itemHash;\n    }\n    function getTotalEtherInProducts() public view returns (uint) {\n        uint totalEtherInProducts = 0;\n        for (uint i = 1; i <= productCount; i++) {\n            totalEtherInProducts += products[i].price;\n        }\n        return totalEtherInProducts;\n    }\n    // Hàm lấy số lượng sản phẩm của chủ sở hữu\n    function getProductCountByOwner(address _owner) public view returns (uint) {\n        uint count = 0;\n        for (uint i = 1; i <= productCount; i++) {\n            if (products[i].owner == _owner) {\n                count++;\n            }\n        }\n        return count;\n    }\n\n    // Hàm lấy thông tin sản phẩm theo chủ sở hữu và chỉ số\n    function getProductByOwner(address _owner, uint _index) public view returns (\n    uint id,\n    string memory productName,\n    uint price,\n    address payable owner,\n    bool purchased,\n    bytes32 itemHash\n) {\n    uint count = 0;\n    for (uint i = 1; i <= productCount; i++) {\n        if (products[i].owner == _owner) {\n            count++;\n            if (count == _index + 1) {\n                Product memory product = products[i];\n                return (\n                    product.id,\n                    product.name,\n                    product.price,\n                    product.owner,\n                    product.purchased,\n                    product.itemHash\n                );\n            }\n        }\n    }\n\n    // Trả về một giá trị mặc định nếu không tìm thấy sản phẩm\n    return (0, \"\", 0, address(0), false, bytes32(0));\n}\n}",
  "sourcePath": "E:\\Reactjs\\Marketplace\\client\\src\\contracts\\Marketplace.sol",
  "compiler": {
    "name": "solc",
    "version": "0.5.0+commit.1d4f565a.Emscripten.clang"
  },
  "schemaVersion": "3.4.13",
  "updatedAt": "2023-07-25T07:50:51.573Z",
  "devdoc": {
    "methods": {}
  },
  "userdoc": {
    "methods": {}
  }
}