{
  "contractName": "Marketplace",
  "abi": [
    {
      "constant": true,
      "inputs": [],
      "name": "name",
      "outputs": [
        {
          "name": "",
          "type": "string"
        }
      ],
      "payable": false,
      "stateMutability": "view",
      "type": "function"
    },
    {
      "constant": true,
      "inputs": [],
      "name": "totalEtherSold",
      "outputs": [
        {
          "name": "",
          "type": "uint256"
        }
      ],
      "payable": false,
      "stateMutability": "view",
      "type": "function"
    },
    {
      "constant": true,
      "inputs": [],
      "name": "latestProductId",
      "outputs": [
        {
          "name": "",
          "type": "uint256"
        }
      ],
      "payable": false,
      "stateMutability": "view",
      "type": "function"
    },
    {
      "constant": true,
      "inputs": [
        {
          "name": "",
          "type": "uint256"
        }
      ],
      "name": "products",
      "outputs": [
        {
          "name": "id",
          "type": "uint256"
        },
        {
          "name": "name",
          "type": "string"
        },
        {
          "name": "price",
          "type": "uint256"
        },
        {
          "name": "owner",
          "type": "address"
        },
        {
          "name": "purchased",
          "type": "bool"
        },
        {
          "name": "itemHash",
          "type": "bytes32"
        }
      ],
      "payable": false,
      "stateMutability": "view",
      "type": "function"
    },
    {
      "constant": true,
      "inputs": [],
      "name": "productCount",
      "outputs": [
        {
          "name": "",
          "type": "uint256"
        }
      ],
      "payable": false,
      "stateMutability": "view",
      "type": "function"
    },
    {
      "inputs": [],
      "payable": false,
      "stateMutability": "nonpayable",
      "type": "constructor"
    },
    {
      "anonymous": false,
      "inputs": [
        {
          "indexed": true,
          "name": "productId",
          "type": "uint256"
        },
        {
          "indexed": false,
          "name": "name",
          "type": "string"
        },
        {
          "indexed": false,
          "name": "price",
          "type": "uint256"
        },
        {
          "indexed": false,
          "name": "owner",
          "type": "address"
        },
        {
          "indexed": false,
          "name": "purchased",
          "type": "bool"
        },
        {
          "indexed": false,
          "name": "itemHash",
          "type": "bytes32"
        }
      ],
      "name": "ProductCreated",
      "type": "event"
    },
    {
      "anonymous": false,
      "inputs": [
        {
          "indexed": false,
          "name": "id",
          "type": "uint256"
        },
        {
          "indexed": false,
          "name": "name",
          "type": "string"
        },
        {
          "indexed": false,
          "name": "price",
          "type": "uint256"
        },
        {
          "indexed": false,
          "name": "owner",
          "type": "address"
        },
        {
          "indexed": false,
          "name": "purchased",
          "type": "bool"
        },
        {
          "indexed": false,
          "name": "itemHash",
          "type": "bytes32"
        }
      ],
      "name": "ProductPurchased",
      "type": "event"
    },
    {
      "constant": false,
      "inputs": [
        {
          "name": "_name",
          "type": "string"
        },
        {
          "name": "_price",
          "type": "uint256"
        }
      ],
      "name": "createProduct",
      "outputs": [],
      "payable": false,
      "stateMutability": "nonpayable",
      "type": "function"
    },
    {
      "constant": false,
      "inputs": [
        {
          "name": "_id",
          "type": "uint256"
        }
      ],
      "name": "purchaseProduct",
      "outputs": [],
      "payable": true,
      "stateMutability": "payable",
      "type": "function"
    },
    {
      "constant": true,
      "inputs": [
        {
          "name": "_id",
          "type": "uint256"
        }
      ],
      "name": "getItemHash",
      "outputs": [
        {
          "name": "",
          "type": "bytes32"
        }
      ],
      "payable": false,
      "stateMutability": "view",
      "type": "function"
    },
    {
      "constant": true,
      "inputs": [],
      "name": "getTotalEtherInProducts",
      "outputs": [
        {
          "name": "",
          "type": "uint256"
        }
      ],
      "payable": false,
      "stateMutability": "view",
      "type": "function"
    },
    {
      "constant": true,
      "inputs": [
        {
          "name": "_owner",
          "type": "address"
        }
      ],
      "name": "getProductCountByOwner",
      "outputs": [
        {
          "name": "",
          "type": "uint256"
        }
      ],
      "payable": false,
      "stateMutability": "view",
      "type": "function"
    },
    {
      "constant": true,
      "inputs": [
        {
          "name": "_owner",
          "type": "address"
        },
        {
          "name": "_index",
          "type": "uint256"
        }
      ],
      "name": "getProductByOwner",
      "outputs": [
        {
          "name": "id",
          "type": "uint256"
        },
        {
          "name": "productName",
          "type": "string"
        },
        {
          "name": "price",
          "type": "uint256"
        },
        {
          "name": "owner",
          "type": "address"
        },
        {
          "name": "purchased",
          "type": "bool"
        },
        {
          "name": "itemHash",
          "type": "bytes32"
        }
      ],
      "payable": false,
      "stateMutability": "view",
      "type": "function"
    }
  ],
  "bytecode": "0x60806040526000600155600060025560006003553480156200002057600080fd5b506040805190810160405280601b81526020017f4461707020556e6976657273697479204d61726b6574706c6163650000000000815250600090805190602001906200006e92919062000075565b5062000124565b828054600181600116156101000203166002900490600052602060002090601f016020900481019282601f10620000b857805160ff1916838001178555620000e9565b82800160010185558215620000e9579182015b82811115620000e8578251825591602001919060010190620000cb565b5b509050620000f89190620000fc565b5090565b6200012191905b808211156200011d57600081600090555060010162000103565b5090565b90565b6113a180620001346000396000f3fe6080604052600436106100af576000357c0100000000000000000000000000000000000000000000000000000000900463ffffffff16806306fdde03146100b45780630857f0a11461014457806319a6b04a1461016f5780631bed4e381461019a57806338e76a03146101ff57806340faa28a1461022d57806351518858146103545780637acc0b201461037f5780639caa944814610486578063e0f6ef87146104d5578063e9300c6c14610500575b600080fd5b3480156100c057600080fd5b506100c96105d2565b6040518080602001828103825283818151815260200191508051906020019080838360005b838110156101095780820151818401526020810190506100ee565b50505050905090810190601f1680156101365780820380516001836020036101000a031916815260200191505b509250505060405180910390f35b34801561015057600080fd5b50610159610670565b6040518082815260200191505060405180910390f35b34801561017b57600080fd5b506101846106b9565b6040518082815260200191505060405180910390f35b3480156101a657600080fd5b506101e9600480360360208110156101bd57600080fd5b81019080803573ffffffffffffffffffffffffffffffffffffffff1690602001909291905050506106bf565b6040518082815260200191505060405180910390f35b61022b6004803603602081101561021557600080fd5b8101908080359060200190929190505050610762565b005b34801561023957600080fd5b506102866004803603604081101561025057600080fd5b81019080803573ffffffffffffffffffffffffffffffffffffffff16906020019092919080359060200190929190505050610b3f565b60405180878152602001806020018681526020018573ffffffffffffffffffffffffffffffffffffffff1673ffffffffffffffffffffffffffffffffffffffff16815260200184151515158152602001838152602001828103825287818151815260200191508051906020019080838360005b838110156103145780820151818401526020810190506102f9565b50505050905090810190601f1680156103415780820380516001836020036101000a031916815260200191505b5097505050505050505060405180910390f35b34801561036057600080fd5b50610369610db9565b6040518082815260200191505060405180910390f35b34801561038b57600080fd5b506103b8600480360360208110156103a257600080fd5b8101908080359060200190929190505050610dbf565b60405180878152602001806020018681526020018573ffffffffffffffffffffffffffffffffffffffff1673ffffffffffffffffffffffffffffffffffffffff16815260200184151515158152602001838152602001828103825287818151815260200191508051906020019080838360005b8381101561044657808201518184015260208101905061042b565b50505050905090810190601f1680156104735780820380516001836020036101000a031916815260200191505b5097505050505050505060405180910390f35b34801561049257600080fd5b506104bf600480360360208110156104a957600080fd5b8101908080359060200190929190505050610ec0565b6040518082815260200191505060405180910390f35b3480156104e157600080fd5b506104ea610efc565b6040518082815260200191505060405180910390f35b34801561050c57600080fd5b506105d06004803603604081101561052357600080fd5b810190808035906020019064010000000081111561054057600080fd5b82018360208201111561055257600080fd5b8035906020019184600183028401116401000000008311171561057457600080fd5b91908080601f016020809104026020016040519081016040528093929190818152602001838380828437600081840152601f19601f82011690508083019250505050505050919291929080359060200190929190505050610f02565b005b60008054600181600116156101000203166002900480601f0160208091040260200160405190810160405280929190818152602001828054600181600116156101000203166002900480156106685780601f1061063d57610100808354040283529160200191610668565b820191906000526020600020905b81548152906001019060200180831161064b57829003601f168201915b505050505081565b600080600090506000600190505b600154811115156106b157600460008281526020019081526020016000206002015482019150808060010191505061067e565b508091505090565b60035481565b600080600090506000600190505b60015481111515610758578373ffffffffffffffffffffffffffffffffffffffff166004600083815260200190815260200160002060030160009054906101000a900473ffffffffffffffffffffffffffffffffffffffff1673ffffffffffffffffffffffffffffffffffffffff16141561074b5781806001019250505b80806001019150506106cd565b5080915050919050565b600060046000838152602001908152602001600020905060008160030160009054906101000a900473ffffffffffffffffffffffffffffffffffffffff169050600082600001541180156107bc5750600154826000015411155b15156107c757600080fd5b816002015434101515156107da57600080fd5b8160030160149054906101000a900460ff161515156107f857600080fd5b3373ffffffffffffffffffffffffffffffffffffffff168173ffffffffffffffffffffffffffffffffffffffff161415151561083357600080fd5b338260030160006101000a81548173ffffffffffffffffffffffffffffffffffffffff021916908373ffffffffffffffffffffffffffffffffffffffff16021790555060018260030160146101000a81548160ff021916908315150217905550816004600085815260200190815260200160002060008201548160000155600182018160010190805460018160011615610100020316600290046108d89291906111f7565b50600282015481600201556003820160009054906101000a900473ffffffffffffffffffffffffffffffffffffffff168160030160006101000a81548173ffffffffffffffffffffffffffffffffffffffff021916908373ffffffffffffffffffffffffffffffffffffffff1602179055506003820160149054906101000a900460ff168160030160146101000a81548160ff0219169083151502179055506004820154816004015590505060008190508073ffffffffffffffffffffffffffffffffffffffff166108fc349081150290604051600060405180830381858888f193505050501580156109cf573d6000803e3d6000fd5b5082600201546003600082825401925050819055507f0865eac96d89f973f262e212b78a677a532dff8625aafd13816c53ff1e4af75683600001548460010185600201548660030160009054906101000a900473ffffffffffffffffffffffffffffffffffffffff168760030160149054906101000a900460ff16886004015460405180878152602001806020018681526020018573ffffffffffffffffffffffffffffffffffffffff1673ffffffffffffffffffffffffffffffffffffffff16815260200184151515158152602001838152602001828103825287818154600181600116156101000203166002900481526020019150805460018160011615610100020316600290048015610b265780601f10610afb57610100808354040283529160200191610b26565b820191906000526020600020905b815481529060010190602001808311610b0957829003601f168201915b505097505050505050505060405180910390a150505050565b6000606060008060008060008090506000600190505b60015481111515610d7a578973ffffffffffffffffffffffffffffffffffffffff166004600083815260200190815260200160002060030160009054906101000a900473ffffffffffffffffffffffffffffffffffffffff1673ffffffffffffffffffffffffffffffffffffffff161415610d6d57818060010192505060018901821415610d6c57610be561127e565b6004600083815260200190815260200160002060c0604051908101604052908160008201548152602001600182018054600181600116156101000203166002900480601f016020809104026020016040519081016040528092919081815260200182805460018160011615610100020316600290048015610ca75780601f10610c7c57610100808354040283529160200191610ca7565b820191906000526020600020905b815481529060010190602001808311610c8a57829003601f168201915b50505050508152602001600282015481526020016003820160009054906101000a900473ffffffffffffffffffffffffffffffffffffffff1673ffffffffffffffffffffffffffffffffffffffff1673ffffffffffffffffffffffffffffffffffffffff1681526020016003820160149054906101000a900460ff161515151581526020016004820154815250509050806000015181602001518260400151836060015184608001518560a00151849450985098509850985098509850505050610daf565b5b8080600101915050610b55565b506000806000806000600102849450602060405190810160405280600081525093929190839350965096509650965096509650505b9295509295509295565b60025481565b6004602052806000526040600020600091509050806000015490806001018054600181600116156101000203166002900480601f016020809104026020016040519081016040528092919081815260200182805460018160011615610100020316600290048015610e715780601f10610e4657610100808354040283529160200191610e71565b820191906000526020600020905b815481529060010190602001808311610e5457829003601f168201915b5050505050908060020154908060030160009054906101000a900473ffffffffffffffffffffffffffffffffffffffff16908060030160149054906101000a900460ff16908060040154905086565b60008082118015610ed357506001548211155b1515610ede57600080fd5b60046000838152602001908152602001600020600401549050919050565b60015481565b60008251111515610f1257600080fd5b600081111515610f2157600080fd5b60016000815480929190600101919050555060008282336040516020018084805190602001908083835b602083101515610f705780518252602082019150602081019050602083039250610f4b565b6001836020036101000a0380198251168184511680821785525050505050509050018381526020018273ffffffffffffffffffffffffffffffffffffffff1673ffffffffffffffffffffffffffffffffffffffff166c01000000000000000000000000028152601401935050505060405160208183030381529060405280519060200120905060c06040519081016040528060015481526020018481526020018381526020013373ffffffffffffffffffffffffffffffffffffffff1681526020016000151581526020018281525060046000600154815260200190815260200160002060008201518160000155602082015181600101908051906020019061107a9291906112d0565b506040820151816002015560608201518160030160006101000a81548173ffffffffffffffffffffffffffffffffffffffff021916908373ffffffffffffffffffffffffffffffffffffffff16021790555060808201518160030160146101000a81548160ff02191690831515021790555060a082015181600401559050506001546002819055506001547fece931d11502aff838cfcac8398e4eccaffb2c0c18a6c8de4656b1d3d364daee84843360008660405180806020018681526020018573ffffffffffffffffffffffffffffffffffffffff1673ffffffffffffffffffffffffffffffffffffffff16815260200184151515158152602001838152602001828103825287818151815260200191508051906020019080838360005b838110156111b4578082015181840152602081019050611199565b50505050905090810190601f1680156111e15780820380516001836020036101000a031916815260200191505b50965050505050505060405180910390a2505050565b828054600181600116156101000203166002900490600052602060002090601f016020900481019282601f10611230578054855561126d565b8280016001018555821561126d57600052602060002091601f016020900482015b8281111561126c578254825591600101919060010190611251565b5b50905061127a9190611350565b5090565b60c060405190810160405280600081526020016060815260200160008152602001600073ffffffffffffffffffffffffffffffffffffffff168152602001600015158152602001600080191681525090565b828054600181600116156101000203166002900490600052602060002090601f016020900481019282601f1061131157805160ff191683800117855561133f565b8280016001018555821561133f579182015b8281111561133e578251825591602001919060010190611323565b5b50905061134c9190611350565b5090565b61137291905b8082111561136e576000816000905550600101611356565b5090565b9056fea165627a7a723058204f7d59bab9d4ef6366d4f3e718327440e85deb94a853377e1141a15a9d65c32c0029",
  "source": "pragma solidity ^0.5.0;\r\n\r\ncontract Marketplace {\r\n  string public name;\r\n  uint public productCount = 0;\r\n  uint public latestProductId = 0;\r\n  uint public totalEtherSold = 0;\r\n  mapping(uint => Product) public products;\r\n\r\n  struct Product {\r\n    uint id;\r\n    string name;\r\n    uint price;\r\n    address payable owner;\r\n    bool purchased;\r\n    bytes32 itemHash;\r\n  }\r\n\r\n  event ProductCreated(\r\n    uint indexed productId,\r\n    string name,\r\n    uint price,\r\n    address payable owner,\r\n    bool purchased,\r\n    bytes32 itemHash\r\n  );\r\n\r\n  event ProductPurchased(\r\n    uint id,\r\n    string name,\r\n    uint price,\r\n    address payable owner,\r\n    bool purchased,\r\n    bytes32 itemHash // Thêm trường itemHash vào sự kiện ProductPurchased\r\n  );\r\n\r\n  constructor() public {\r\n    name = 'Dapp University Marketplace';\r\n  }\r\n\r\n  function createProduct(string memory _name, uint _price) public {\r\n    require(bytes(_name).length > 0);\r\n    require(_price > 0);\r\n    productCount++;\r\n\r\n    // Create the itemHash by hashing the product information\r\n    bytes32 itemHash = keccak256(abi.encodePacked(_name, _price, msg.sender));\r\n\r\n    products[productCount] = Product(\r\n      productCount,\r\n      _name,\r\n      _price,\r\n      msg.sender,\r\n      false,\r\n      itemHash // Gán itemHash vào sản phẩm\r\n    );\r\n\r\n    latestProductId = productCount; // Cập nhật latestProductId\r\n    emit ProductCreated(productCount, _name, _price, msg.sender, false, itemHash);\r\n  }\r\n\r\n  function purchaseProduct(uint _id) public payable {\r\n    // Lấy thông tin sản phẩm từ lưu trữ\r\n    Product storage _product = products[_id];\r\n    // Lấy địa chỉ của người bán\r\n    address payable _seller = _product.owner;\r\n    // Kiểm tra xem sản phẩm có id hợp lệ hay không\r\n    require(_product.id > 0 && _product.id <= productCount);\r\n    // Yêu cầu số Ether trong giao dịch phải đủ để mua sản phẩm\r\n    require(msg.value >= _product.price);\r\n    // Yêu cầu sản phẩm chưa được mua trước đó\r\n    require(!_product.purchased);\r\n    // Yêu cầu người mua không phải là người bán\r\n    require(_seller != msg.sender);\r\n\r\n    // Chuyển quyền sở hữu sản phẩm cho người mua\r\n    _product.owner = msg.sender;\r\n    // Đánh dấu sản phẩm đã được mua\r\n    _product.purchased = true;\r\n    // Cập nhật thông tin sản phẩm trong mapping\r\n    products[_id] = _product;\r\n    // Trả tiền cho người bán bằng cách chuyển Ether\r\n    address payable payableSeller = address(uint160(_seller));\r\n    payableSeller.transfer(msg.value);\r\n    totalEtherSold += _product.price;\r\n    // Gửi sự kiện thông báo việc mua sản phẩm thành công\r\n    emit ProductPurchased(\r\n      _product.id,\r\n      _product.name,\r\n      _product.price,\r\n      _product.owner,\r\n      _product.purchased,\r\n      _product.itemHash\r\n    );\r\n  }\r\n\r\n  function getItemHash(uint _id) public view returns (bytes32) {\r\n    require(_id > 0 && _id <= productCount);\r\n    return products[_id].itemHash;\r\n  }\r\n\r\n  function getTotalEtherInProducts() public view returns (uint) {\r\n    uint totalEtherInProducts = 0;\r\n    for (uint i = 1; i <= productCount; i++) {\r\n      totalEtherInProducts += products[i].price;\r\n    }\r\n    return totalEtherInProducts;\r\n  }\r\n\r\n  // Hàm lấy số lượng sản phẩm của chủ sở hữu\r\n  function getProductCountByOwner(address _owner) public view returns (uint) {\r\n    uint count = 0;\r\n    for (uint i = 1; i <= productCount; i++) {\r\n      if (products[i].owner == _owner) {\r\n        count++;\r\n      }\r\n    }\r\n    return count;\r\n  }\r\n\r\n  // Hàm lấy thông tin sản phẩm theo chủ sở hữu và chỉ số\r\n  function getProductByOwner(\r\n    address _owner,\r\n    uint _index\r\n  )\r\n    public\r\n    view\r\n    returns (\r\n      uint id,\r\n      string memory productName,\r\n      uint price,\r\n      address payable owner,\r\n      bool purchased,\r\n      bytes32 itemHash\r\n    )\r\n  {\r\n    uint count = 0;\r\n    for (uint i = 1; i <= productCount; i++) {\r\n      if (products[i].owner == _owner) {\r\n        count++;\r\n        if (count == _index + 1) {\r\n          Product memory product = products[i];\r\n          return (\r\n            product.id,\r\n            product.name,\r\n            product.price,\r\n            product.owner,\r\n            product.purchased,\r\n            product.itemHash\r\n          );\r\n        }\r\n      }\r\n    }\r\n\r\n    // Trả về một giá trị mặc định nếu không tìm thấy sản phẩm\r\n    return (0, '', 0, address(0), false, bytes32(0));\r\n  }\r\n}\r\n",
  "sourcePath": "E:\\Reactjs\\Marketplace-NFT-Blockchain\\client\\src\\contracts\\Marketplace.sol",
  "compiler": {
    "name": "solc",
    "version": "0.5.0+commit.1d4f565a.Emscripten.clang"
  },
  "schemaVersion": "3.4.16",
  "updatedAt": "2023-12-07T06:30:16.612Z",
  "networkType": "ethereum",
  "devdoc": {
    "methods": {}
  },
  "userdoc": {
    "methods": {}
  }
}